S00D00004C616235412E7372656392
S11300000C9434000C943E000C943E000C943E007E
S11300100C943E000C943E000C943E000C943E0064
S11300200C943E000C943E000C943E000C943E0054
S11300300C943E000C943E000C943E000C943E0044
S11300400C943E000C943E000C943E000C943E0034
S11300500C943E000C943E000C943E000C943E0024
S11300600C943E000C943E0011241FBECFEFD8E048
S1130070DEBFCDBF0E9440000C944B000C940000E6
S113008083EA84BD84E085BD8CE787BD8DE388BDAC
S10D009080E28AB9FFCFF894FFCF95
S9030000FC
