S00E00004C61623141382E737265635D
S11300000C9434000C943E000C943E000C943E007E
S11300100C943E000C943E000C943E000C943E0064
S11300200C943E000C943E000C943E000C943E0054
S11300300C943E000C943E000C943E000C943E0044
S11300400C943E000C943E000C943E000C943E0034
S11300500C943E000C943E000C943E000C943E0024
S11300600C943E000C943E0011241FBECFEFD8E048
S1130070DEBFCDBF0E9440000C9459000C940000D8
S11300808FEF8AB995E58AEA9BB92FEF38E04DE303
S1130090215030404040E1F700C000008BB92FEF01
S11300A038E04DE3215030404040E1F700C000000B
S10900B0EBCFF894FFCF32
S9030000FC
