:100000000C9434000C9451000C9451000C94510049
:100010000C9451000C9451000C9451000C9451001C
:100020000C9451000C9451000C9451000C9451000C
:100030000C9451000C9451000C9451000C945100FC
:100040000C9451000C9451000C9466000C945100D7
:100050000C9451000C9451000C9451000C945100DC
:100060000C9451000C94510011241FBECFEFD8E026
:10007000DEBFCDBF11E0A0E0B1E0ECE8F1E002C0EE
:1000800005900D92A431B107D9F721E0A4E1B1E0C8
:1000900001C01D92A731B207E1F70E94AE000C9497
:1000A000C4000C9400009093C5008093C40088E9BC
:1000B0008093C10086E08093C2000895E0ECF0E0F8
:1000C000908195FFFDCF8093C60008951F920F92F7
:1000D0000FB60F9211242F933F934F935F936F931B
:1000E0007F938F939F93AF93BF93EF93FF93209151
:1000F000C60080911401E82FF0E0EC5FFE4F908184
:10010000291719F01092140118C08F5F823019F06E
:100110008093140112C01092140110921501E0E0B6
:10012000F0E0E050FF4F80810E945E00E0911501F9
:10013000EF5FE0931501E43098F3FF91EF91BF91E9
:10014000AF919F918F917F916F915F914F913F916F
:100150002F910F900FBE0F901F9018958FEC90E08D
:100160000E945300789410921601E0E0F0E0EA5FFC
:10017000FE4F80810E945E00E0911601EF5FE093E8
:0C0180001601ED3098F3FFCFF894FFCF8C
:10018C004279652148695765206172652072656105
:04019C006479210061
:00000001FF
