S01700005175697A345F3133313034323634642E73726563D8
S11300000C9434000C9446000C9446000C94460066
S11300100C9446000C9446000C9446000C94460044
S11300200C9446000C9446000C9446000C94740006
S11300300C9446000C9446000C9446000C94460024
S11300400C9446000C9446000C9498000C94830085
S11300500C9446000C9446000C9446000C94460004
S11300600C9446000C94460011241FBECFEFD8E038
S1130070DEBFCDBF21E0A0E0B1E001C01D92A13000
S1130080B207E1F70E9470000C94C2000C940000C7
S1130090E1ECF0E088E1808386E08093C200808117
S11300A0806A80831092C50087E68093C4008FEF36
S11300B084B9EFE6F0E022E0208315B881E08DBB3F
S11300C083E0809369008FEF9FE49093890080938D
S11300D08800109280008DE0809381002083089531
S11300E00E9448007894FFCF1F920F920FB60F9290
S11300F011248F9381E0809300018F910F900FBEA4
S11301000F901F9018951F920F920FB60F92112403
S11301108F9380910001813029F481E68093C60099
S1130120109200018F910F900FBE0F901F901895A1
S11301301F920F920FB60F9211248F939F93809169
S1130140C600833339F48FEF9FE89093890080933E
S1130150880011C0823339F48FEF9FE490938900B3
S11301608093880008C0803331F48FEF9FE290932E
S11301708900809388009F918F910F900FBE0F90FC
S10B01801F901895F894FFCFBD
S9030000FC
