S00D00004C616235422E7372656391
S11300000C9434000C943E000C943E000C943E007E
S11300100C943E000C943E000C943E000C943E0064
S11300200C943E000C943E000C943E000C943E0054
S11300300C943E000C943E000C943E000C943E0044
S11300400C943E000C943E000C943E000C943E0034
S11300500C943E000C943E000C943E000C943E0024
S11300600C943E000C943E0011241FBECFEFD8E048
S1130070DEBFCDBF0E9440000C94FA000C94000037
S113008080E28AB988E18093C10086E08093C2004F
S11300908BE68093C40060E0E0ECF0E0C6ECD0E0D6
S11300A00F2EFFE79F2EF02D0F2EF3EAAF2EF02D2B
S11300B00F2EFDE0BF2EF02DCC24CA946894442466
S11300C047F8512C01E810E00F2EF4E4DF2EF02D58
S11300D040E226E830E00F2EF5E0EF2EF02D0F2E53
S11300E0FDECFF2EF02D0F2EFAE06F2E712CF02D6B
S11300F090E001C090E080818823ECF7888150ED86
S1130100580F5A30B8F79F5F913021F4813398F338
S1130110682FF1CF923079F7908195FFFDCF6883F6
S1130120908195FFFDCF8883660F6056862F880FD8
S1130130880F680F560F58BD97BCA4BCB5BCC5B892
S1130140D2011C92D801DC9246BBB59BFECFD901EB
S11301509C9146BBD801EC92B59BFECFD9018C9102
S1130160891B46BB8F9D812C11248694869486948A
S1130170880C982D990F990F890EB82FB8198B2ECA
S113018090E08B1B9109B3010E94D200605D8081D5
S113019085FFFDCF6883808185FFFDCF80E3880DD7
S11301A08883A6CF97FB072E16F4009407D077FD1B
S11301B009D00E94E60007FC05D03EF49095819595
S11301C09F4F0895709561957F4F0895AA1BBB1B9F
S11301D051E107C0AA1FBB1FA617B70710F0A61B43
S11301E0B70B881F991F5A95A9F780959095BC0164
S10B01F0CD010895F894FFCF3E
S9030000FC
