:100000000C9434000C943E000C943E000C943E0082
:100010000C943E000C943E000C943E000C943E0068
:100020000C943E000C943E000C943E000C943E0058
:100030000C943E000C943E000C943E000C943E0048
:100040000C943E000C943E000C943E000C943E0038
:100050000C943E000C943E000C943E000C943E0028
:100060000C943E000C943E0011241FBECFEFD8E04C
:10007000DEBFCDBF0E9440000C9455000C940000E0
:100080001AB881E087B920E030E082E096E041E0F4
:1000900050E028B987BD84BD95BDA99BFECFBA01AC
:0E00A000621B730B9B0185BBF4CFF894FFCF5E
:00000001FF
