S01400004C61623242204E6F726D616C2E7372656304
S11300000C9434000C943E000C943E000C943E007E
S11300100C943E000C943E000C943E000C943E0064
S11300200C943E000C943E000C943E000C943E0054
S11300300C943E000C943E000C943E000C943E0044
S11300400C943E000C943E000C943E000C943E0034
S11300500C943E000C943E000C943E000C943E0024
S11300600C943E000C943E0011241FBECFEFD8E048
S1130070DEBFCDBF0E9471000C94BA000C94000046
S11300801816190684F420E030E055E041E016BC6F
S113009014BC55BDA89BFECF15BC45BB2F5F3F4F7D
S11300A082179307A1F7089564E170E055E041E0F9
S11300B0E0E21816190674F420E030E016BC14BC13
S11300C055BDA89BFECF15BC45BB2F5F3F4F821784
S11300D09307A1F728B12E2728B96150710949F770
S11300E00895C0E10F2EF1E2BF2EF02D0F2EF1E1A5
S11300F0CF2EF02D19E00F2EFBE0DF2EF02DD0E2F5
S11301000F2EFCE0EF2EF02D0F2EFAE0FF2EF02D37
S113011009E1C8B9B5B881E391E00E944000C8B9CB
S1130120C5B88DE390E00E944000C8B915B98DE3CD
S113013090E00E944000C8B9D5B88DE390E00E94D9
S11301404000D8B9E5B881E391E00E944000D8B9F5
S1130150F5B883E090E00E945400C8B915B98DE366
S113016090E00E944000C8B905B98DE390E00E9478
S10B01704000CFCFF894FFCF4B
S9030000FC
