S01100004C61623241204354432E7372656397
S11300000C9434000C943E000C943E000C943E007E
S11300100C943E000C943E000C943E000C943E0064
S11300200C943E000C943E000C943E000C943E0054
S11300300C943E000C943E000C943E000C943E0044
S11300400C943E000C943E000C943E000C943E0034
S11300500C943E000C943E000C943E000C943E0024
S11300600C943E000C943E0011241FBECFEFD8E048
S1130070DEBFCDBF0E945F000C946C000C940000A6
S1130080BC0118161906D4F440E050E0AFEFF2E0DA
S1130090E5E081E0A7BDF4BDE5BD25B397B530E04B
S11300A002C0359527959A95E2F720FFF6CF15BC47
S11300B085BB4F5F5F4F6417750761F708958FEF36
S11300C084B981E085B9C1E08DE390E00E944000ED
S10F00D085B18C2785B9F8CFF894FFCFD8
S9030000FC
