:100000000C9434000C9449000C9449000C94490061
:100010000C9449000C9449000C9449000C9449003C
:100020000C9449000C9449000C9449000C9449002C
:100030000C9449000C9449000C9449000C9449001C
:100040000C9449000C9449000C9449000C9449000C
:100050000C9449000C9449000C9449000C944900FC
:100060000C9449000C94490011241FBECFEFD8E036
:10007000DEBFCDBF11E0A0E0B1E0E8E7F1E002C0F3
:1000800005900D92AE30B107D9F70E9466000C942E
:10009000BA000C9400009093C5008093C40088E1DE
:1000A0008093C10086E08093C2000895E0ECF0E008
:1000B000908195FFFDCF8093C6000895E0ECF0E0BD
:1000C00080818823ECF78091C6000895CF93DF9359
:1000D000CDB7DEB763970FB6F894DEBF0FBECDBFC6
:1000E0008DE0E0E0F1E0DE01119601900D928A953D
:1000F000E1F788E499E69F878E8782E499E7998BF8
:10010000888B85E691E29B8B8A8B8FEC90E00E9436
:100110004B008E010F5F1F4F7E018EE0E80EF11C39
:10012000F80181918F010E945600E016F106C1F797
:1001300010E07E01F4E1EF0EF11C01C010E00E941E
:100140005E00EEE0F0E0EC0FFD1FE10FF11D90818D
:100150008913F4CF1F5F123091F78E01005F1F4F9C
:10016000F80181918F010E945600E016F106C1F757
:0801700010E0E5CFF894FFCF89
:0E01780057652061726520726561647921000F
:00000001FF
