:100000000C9434000C9449000C9449000C94490061
:100010000C9449000C9449000C9449000C9449003C
:100020000C9449000C9449000C9449000C9449002C
:100030000C9449000C9449000C9449000C9449001C
:100040000C9449000C9449000C9449000C9449000C
:100050000C9449000C9449000C9449000C944900FC
:100060000C9449000C94490011241FBECFEFD8E036
:10007000DEBFCDBF11E0A0E0B1E0E8E4F1E002C0F6
:1000800005900D92A230B107D9F70E9476000C942A
:10009000A2000C9400009093C5008093C40088E1F6
:1000A0008093C10086E08093C2000895E0ECF0E008
:1000B000908195FFFDCF8093C6000895811106C001
:1000C000613681F06093000182E00895813031F45F
:1000D00090910001961309C080E00895823021F0CC
:1000E0008FEF089580E0089581E0089587E690E01D
:1000F0000E944B00D0E00F2EF0ECEF2EF12CF02DF3
:1001000011E60F2EF6ECCF2ED12CF02DF7018081C9
:1001100088231CF4F601608101C0612F8D2F0E949D
:100120005E00D82F811104C0812F0E945600EECFAF
:10013000823061F7CAE0809100010E945600C150F0
:08014000D1F7E4CFF894FFCFE2
:02014800200095
:00000001FF
