S00D00004C616234412E7372656393
S11300000C9434000C943E000C943E000C943E007E
S11300100C943E000C943E000C943E000C943E0064
S11300200C943E000C943E000C943E000C943E0054
S11300300C943E000C943E000C943E000C943E0044
S11300400C943E000C943E000C943E000C943E0034
S11300500C943E000C943E000C943E000C943E0024
S11300600C943E000C943E0011241FBECFEFD8E048
S1130070DEBFCDBF0E945B000C9464000C940000B2
S11300809093C5008093C40088E18093C10086E00A
S11300908093C2000895E0ECF0E0908195FFFDCFDD
S11300A08093C6000895E0ECF0E080818823ECF7AB
S11300B08091C60008958FEC90E00E9440000E9459
S10F00C053000E944B00FBCFF894FFCFCC
S9030000FC
