S00E00004C61623320412E7372656373
S11300000C9434000C9449000C9449000C9449005D
S11300100C9449000C9449000C9449000C94490038
S11300200C9449000C9449000C9449000C94490028
S11300300C9449000C9449000C9405010C9449005B
S11300400C9449000C9449000C9449000C94490008
S11300500C9449000C9449000C9449000C944900F8
S11300600C9449000C94490011241FBECFEFD8E032
S1130070DEBFCDBF11E0A0E0B1E0E2E3F2E002C0F8
S113008005900D92A831B107D9F70E9477000C941E
S113009017010C940000109285001092840089E0EE
S11300A09DE39093890080938800109280008DE0F6
S11300B080938100B19BFECF1092810082E086BBC9
S11300C00895109285001092840085E39CE090933B
S11300D0890080938800109280008DE080938100D5
S11300E0B19BFECF1092810082E086BB0895CF932E
S11300F0DF93CDB7DEB768970FB6F894DEBF0FBEB7
S1130100CDBF8FEF84B987B98AB11AB885B115B854
S113011088B118B888E0E0E0F1E0DE0111960190C2
S11301200D928A95E1F788E0E8E0F1E0DE011996A6
S113013001900D928A95E1F788E0E0E1F1E0DE01BB
S1130140519601900D928A95E1F716BC82E087BD25
S113015084BD97E095BD80936E007894689477246D
S113016075F86E017E0188E0E80EF11C5E01E1E1A4
S1130170AE0EB11C88248394912C0BC09394839469
S1130180FFEFCF1ADF0A8FEFE81AF80AEFEFAE1A83
S1130190BE0A911009C095B18981892B85B998B19E
S11301A08985892B88B911C095B1F6012081818197
S11301B08227892785B998B1F70120818181822717
S11301C0892788B9F5E09F1659F0F50100810023CD
S11301D099F010E00E944B001F5F1013FBCF0CC07E
S11301E0192D88B1872588B90E9461001150C9F77B
S11301F088B1872588B9C2CFF7E0F81508F0BECFDB
S113020085B115B888B118B8ACCF1F920F920FB64C
S11302100F9211248F939F9398B181E0892788B915
S11302209F918F910F900FBE0F901F901895F89487
S1050230FFCFFA
S11302322111090B0C0A091910101010202010109A
S10B02420501010105010101A0
S9030000FC
