:100000000C9434000C9451000C9451000C94510049
:100010000C9451000C9451000C9451000C9451001C
:100020000C9451000C9451000C9451000C9451000C
:100030000C9451000C9451000C9451000C945100FC
:100040000C9451000C9451000C94A7000C947E0069
:100050000C9451000C9451000C9451000C945100DC
:100060000C9451000C94510011241FBECFEFD8E026
:10007000DEBFCDBF11E0A0E0B1E0E0EDF1E002C0F5
:1000800005900D92A230B107D9F721E0A2E0B1E0CE
:1000900001C01D92A430B207E1F70E94E0000C9469
:1000A000E6000C9400009093C5008093C40088EB98
:1000B0008093C10086E08093C2000895E0ECF0E0F8
:1000C000908195FFFDCF8093C6000895811106C0F1
:1000D000613681F06093000182E00895813031F44F
:1000E00090910001961309C080E00895823021F0BC
:1000F0008FEF089580E0089581E008951F920F9298
:100100000FB60F9211242F933F934F935F936F93EA
:100110007F938F939F93AF93BF93EF93FF938091C0
:100120000201811103C081E60E945E00FF91EF9100
:10013000BF91AF919F918F917F916F915F914F91FF
:100140003F912F910F900FBE0F901F9018951F9207
:100150000F920FB60F9211242F933F934F935F93FB
:100160006F937F938F939F93AF93BF93EF93FF937F
:100170006091C600809102010E9466008093020196
:10018000823069F410920301809100010E945E00A8
:10019000809103018F5F809303018A30A8F3FF9160
:1001A000EF91BF91AF919F918F917F916F915F91EF
:1001B0004F913F912F910F900FBE0F901F90189568
:1001C00087E690E00E9453007894FFCFF894FFCF29
:0201D00020000D
:00000001FF
