S00E00004C61623142322E7372656362
S11300000C9434000C943E000C943E000C943E007E
S11300100C943E000C943E000C943E000C943E0064
S11300200C943E000C943E000C943E000C943E0054
S11300300C943E000C943E000C943E000C943E0044
S11300400C943E000C943E000C943E000C943E0034
S11300500C943E000C943E000C943E000C943E0024
S11300600C943E000C943E0011241FBECFEFD8E048
S1130070DEBFCDBF0E9440000C9467000C940000CA
S11300808FEF8AB914B885B990E020E04FEF31E0E2
S113009050E083B181708917E1F383B1982F917097
S11300A080FF0BC0189B04C0832F2111852F282F9C
S11300B0213011F44BB901C01BB86FE77AE186E037
S11300C0615070408040E1F700C00000E2CFF89436
S10500D0FFCF5C
S9030000FC
